{
  "_format": "hh-sol-artifact-1",
  "contractName": "Escrow",
  "sourceName": "contracts/Escrow.sol",
  "abi": [
    {
      "inputs": [
        {
          "internalType": "address",
          "name": "_factory",
          "type": "address"
        }
      ],
      "stateMutability": "nonpayable",
      "type": "constructor"
    },
    {
      "inputs": [],
      "name": "ReentrancyGuardReentrantCall",
      "type": "error"
    },
    {
      "anonymous": false,
      "inputs": [
        {
          "indexed": true,
          "internalType": "address",
          "name": "depositor",
          "type": "address"
        },
        {
          "indexed": false,
          "internalType": "uint256",
          "name": "amount",
          "type": "uint256"
        }
      ],
      "name": "FundsDeposited",
      "type": "event"
    },
    {
      "anonymous": false,
      "inputs": [
        {
          "indexed": true,
          "internalType": "address",
          "name": "client",
          "type": "address"
        },
        {
          "indexed": false,
          "internalType": "uint256",
          "name": "amount",
          "type": "uint256"
        }
      ],
      "name": "FundsRefunded",
      "type": "event"
    },
    {
      "anonymous": false,
      "inputs": [
        {
          "indexed": true,
          "internalType": "address",
          "name": "freelancer",
          "type": "address"
        },
        {
          "indexed": false,
          "internalType": "uint256",
          "name": "amount",
          "type": "uint256"
        }
      ],
      "name": "FundsReleased",
      "type": "event"
    },
    {
      "anonymous": false,
      "inputs": [
        {
          "indexed": true,
          "internalType": "address",
          "name": "freelancer",
          "type": "address"
        },
        {
          "indexed": false,
          "internalType": "string",
          "name": "workReference",
          "type": "string"
        }
      ],
      "name": "WorkSubmitted",
      "type": "event"
    },
    {
      "inputs": [],
      "name": "amount",
      "outputs": [
        {
          "internalType": "uint256",
          "name": "",
          "type": "uint256"
        }
      ],
      "stateMutability": "view",
      "type": "function"
    },
    {
      "inputs": [],
      "name": "approveWork",
      "outputs": [],
      "stateMutability": "nonpayable",
      "type": "function"
    },
    {
      "inputs": [],
      "name": "client",
      "outputs": [
        {
          "internalType": "address",
          "name": "",
          "type": "address"
        }
      ],
      "stateMutability": "view",
      "type": "function"
    },
    {
      "inputs": [
        {
          "internalType": "address",
          "name": "_client",
          "type": "address"
        },
        {
          "internalType": "address",
          "name": "_freelancer",
          "type": "address"
        },
        {
          "internalType": "uint256",
          "name": "_amount",
          "type": "uint256"
        }
      ],
      "name": "createEscrow",
      "outputs": [],
      "stateMutability": "nonpayable",
      "type": "function"
    },
    {
      "inputs": [],
      "name": "depositFunds",
      "outputs": [],
      "stateMutability": "payable",
      "type": "function"
    },
    {
      "inputs": [],
      "name": "factory",
      "outputs": [
        {
          "internalType": "address",
          "name": "",
          "type": "address"
        }
      ],
      "stateMutability": "view",
      "type": "function"
    },
    {
      "inputs": [],
      "name": "freelancer",
      "outputs": [
        {
          "internalType": "address",
          "name": "",
          "type": "address"
        }
      ],
      "stateMutability": "view",
      "type": "function"
    },
    {
      "inputs": [],
      "name": "rejectWork",
      "outputs": [],
      "stateMutability": "nonpayable",
      "type": "function"
    },
    {
      "inputs": [],
      "name": "status",
      "outputs": [
        {
          "internalType": "enum IEscrow.EscrowStatus",
          "name": "",
          "type": "uint8"
        }
      ],
      "stateMutability": "view",
      "type": "function"
    },
    {
      "inputs": [
        {
          "internalType": "string",
          "name": "_workReference",
          "type": "string"
        }
      ],
      "name": "submitWork",
      "outputs": [],
      "stateMutability": "nonpayable",
      "type": "function"
    },
    {
      "inputs": [],
      "name": "workReference",
      "outputs": [
        {
          "internalType": "string",
          "name": "",
          "type": "string"
        }
      ],
      "stateMutability": "view",
      "type": "function"
    }
  ],
  "bytecode": "0x60a06040523480156200001157600080fd5b5060405162001e8738038062001e87833981810160405281019062000037919062000156565b6001600081905550600073ffffffffffffffffffffffffffffffffffffffff168173ffffffffffffffffffffffffffffffffffffffff1603620000b1576040517f08c379a0000000000000000000000000000000000000000000000000000000008152600401620000a890620001e9565b60405180910390fd5b8073ffffffffffffffffffffffffffffffffffffffff1660808173ffffffffffffffffffffffffffffffffffffffff1681525050506200020b565b600080fd5b600073ffffffffffffffffffffffffffffffffffffffff82169050919050565b60006200011e82620000f1565b9050919050565b620001308162000111565b81146200013c57600080fd5b50565b600081519050620001508162000125565b92915050565b6000602082840312156200016f576200016e620000ec565b5b60006200017f848285016200013f565b91505092915050565b600082825260208201905092915050565b7f496e76616c696420666163746f72790000000000000000000000000000000000600082015250565b6000620001d1600f8362000188565b9150620001de8262000199565b602082019050919050565b600060208201905081810360008301526200020481620001c2565b9050919050565b608051611c596200022e600039600081816107880152610ac90152611c596000f3fe60806040526004361061009c5760003560e01c8063a54e4df511610064578063a54e4df514610176578063aa8c217c1461018d578063c3617650146101b8578063c45a0155146101e1578063ddb3a5321461020c578063e2c41dbc146102235761009c565b8063095da7f6146100a1578063109e94cf146100ca578063200d2ed2146100f55780634342333514610120578063a37dda2c1461014b575b600080fd5b3480156100ad57600080fd5b506100c860048036038101906100c39190610ff9565b61022d565b005b3480156100d657600080fd5b506100df61040c565b6040516100ec9190611087565b60405180910390f35b34801561010157600080fd5b5061010a610432565b6040516101179190611119565b60405180910390f35b34801561012c57600080fd5b50610135610445565b60405161014291906111c4565b60405180910390f35b34801561015757600080fd5b506101606104d3565b60405161016d9190611087565b60405180910390f35b34801561018257600080fd5b5061018b6104f9565b005b34801561019957600080fd5b506101a2610780565b6040516101af91906111ff565b60405180910390f35b3480156101c457600080fd5b506101df60048036038101906101da9190611272565b610786565b005b3480156101ed57600080fd5b506101f6610ac7565b6040516102039190611087565b60405180910390f35b34801561021857600080fd5b50610221610aeb565b005b61022b610d73565b005b600260009054906101000a900473ffffffffffffffffffffffffffffffffffffffff1673ffffffffffffffffffffffffffffffffffffffff163373ffffffffffffffffffffffffffffffffffffffff16146102bd576040517f08c379a00000000000000000000000000000000000000000000000000000000081526004016102b490611311565b60405180910390fd5b60018060048111156102d2576102d16110a2565b5b600460009054906101000a900460ff1660048111156102f4576102f36110a2565b5b14610334576040517f08c379a000000000000000000000000000000000000000000000000000000000815260040161032b9061137d565b60405180910390fd5b6000838390501161037a576040517f08c379a0000000000000000000000000000000000000000000000000000000008152600401610371906113e9565b60405180910390fd5b82826005918261038b92919061164f565b506002600460006101000a81548160ff021916908360048111156103b2576103b16110a2565b5b02179055503373ffffffffffffffffffffffffffffffffffffffff167f7222637ff073e2f9674b0a63b756fa166f70893c7ab038c22845a6b4dbbc8abf84846040516103ff92919061175b565b60405180910390a2505050565b600160009054906101000a900473ffffffffffffffffffffffffffffffffffffffff1681565b600460009054906101000a900460ff1681565b6005805461045290611472565b80601f016020809104026020016040519081016040528092919081815260200182805461047e90611472565b80156104cb5780601f106104a0576101008083540402835291602001916104cb565b820191906000526020600020905b8154815290600101906020018083116104ae57829003601f168201915b505050505081565b600260009054906101000a900473ffffffffffffffffffffffffffffffffffffffff1681565b600160009054906101000a900473ffffffffffffffffffffffffffffffffffffffff1673ffffffffffffffffffffffffffffffffffffffff163373ffffffffffffffffffffffffffffffffffffffff1614610589576040517f08c379a0000000000000000000000000000000000000000000000000000000008152600401610580906117cb565b60405180910390fd5b600280600481111561059e5761059d6110a2565b5b600460009054906101000a900460ff1660048111156105c0576105bf6110a2565b5b14610600576040517f08c379a00000000000000000000000000000000000000000000000000000000081526004016105f79061137d565b60405180910390fd5b610608610f3a565b60048060006101000a81548160ff0219169083600481111561062d5761062c6110a2565b5b02179055506000600160009054906101000a900473ffffffffffffffffffffffffffffffffffffffff1673ffffffffffffffffffffffffffffffffffffffff1660035460405161067c9061181c565b60006040518083038185875af1925050503d80600081146106b9576040519150601f19603f3d011682016040523d82523d6000602084013e6106be565b606091505b5050905080610702576040517f08c379a00000000000000000000000000000000000000000000000000000000081526004016106f99061187d565b60405180910390fd5b600160009054906101000a900473ffffffffffffffffffffffffffffffffffffffff1673ffffffffffffffffffffffffffffffffffffffff167fbada1a1bf129e41a8af5abe00997bd8a8cb1770cb0cf68314eb4b1d6c427139760035460405161076c91906111ff565b60405180910390a25061077d610f80565b50565b60035481565b7f000000000000000000000000000000000000000000000000000000000000000073ffffffffffffffffffffffffffffffffffffffff163373ffffffffffffffffffffffffffffffffffffffff1614610814576040517f08c379a000000000000000000000000000000000000000000000000000000000815260040161080b906118e9565b60405180910390fd5b600660009054906101000a900460ff1615610864576040517f08c379a000000000000000000000000000000000000000000000000000000000815260040161085b90611955565b60405180910390fd5b600073ffffffffffffffffffffffffffffffffffffffff168373ffffffffffffffffffffffffffffffffffffffff16036108d3576040517f08c379a00000000000000000000000000000000000000000000000000000000081526004016108ca906119c1565b60405180910390fd5b600073ffffffffffffffffffffffffffffffffffffffff168273ffffffffffffffffffffffffffffffffffffffff1603610942576040517f08c379a000000000000000000000000000000000000000000000000000000000815260040161093990611a2d565b60405180910390fd5b8173ffffffffffffffffffffffffffffffffffffffff168373ffffffffffffffffffffffffffffffffffffffff16036109b0576040517f08c379a00000000000000000000000000000000000000000000000000000000081526004016109a790611abf565b60405180910390fd5b600081116109f3576040517f08c379a00000000000000000000000000000000000000000000000000000000081526004016109ea90611b2b565b60405180910390fd5b82600160006101000a81548173ffffffffffffffffffffffffffffffffffffffff021916908373ffffffffffffffffffffffffffffffffffffffff16021790555081600260006101000a81548173ffffffffffffffffffffffffffffffffffffffff021916908373ffffffffffffffffffffffffffffffffffffffff160217905550806003819055506000600460006101000a81548160ff02191690836004811115610aa257610aa16110a2565b5b02179055506001600660006101000a81548160ff021916908315150217905550505050565b7f000000000000000000000000000000000000000000000000000000000000000081565b600160009054906101000a900473ffffffffffffffffffffffffffffffffffffffff1673ffffffffffffffffffffffffffffffffffffffff163373ffffffffffffffffffffffffffffffffffffffff1614610b7b576040517f08c379a0000000000000000000000000000000000000000000000000000000008152600401610b72906117cb565b60405180910390fd5b6002806004811115610b9057610b8f6110a2565b5b600460009054906101000a900460ff166004811115610bb257610bb16110a2565b5b14610bf2576040517f08c379a0000000000000000000000000000000000000000000000000000000008152600401610be99061137d565b60405180910390fd5b610bfa610f3a565b6003600460006101000a81548160ff02191690836004811115610c2057610c1f6110a2565b5b02179055506000600260009054906101000a900473ffffffffffffffffffffffffffffffffffffffff1673ffffffffffffffffffffffffffffffffffffffff16600354604051610c6f9061181c565b60006040518083038185875af1925050503d8060008114610cac576040519150601f19603f3d011682016040523d82523d6000602084013e610cb1565b606091505b5050905080610cf5576040517f08c379a0000000000000000000000000000000000000000000000000000000008152600401610cec90611b97565b60405180910390fd5b600260009054906101000a900473ffffffffffffffffffffffffffffffffffffffff1673ffffffffffffffffffffffffffffffffffffffff167f221c08a06b07a64803b3787861a3f276212fcccb51c2e6234077a9b8cb13047a600354604051610d5f91906111ff565b60405180910390a250610d70610f80565b50565b600160009054906101000a900473ffffffffffffffffffffffffffffffffffffffff1673ffffffffffffffffffffffffffffffffffffffff163373ffffffffffffffffffffffffffffffffffffffff1614610e03576040517f08c379a0000000000000000000000000000000000000000000000000000000008152600401610dfa906117cb565b60405180910390fd5b6000806004811115610e1857610e176110a2565b5b600460009054906101000a900460ff166004811115610e3a57610e396110a2565b5b14610e7a576040517f08c379a0000000000000000000000000000000000000000000000000000000008152600401610e719061137d565b60405180910390fd5b6003543414610ebe576040517f08c379a0000000000000000000000000000000000000000000000000000000008152600401610eb590611c03565b60405180910390fd5b6001600460006101000a81548160ff02191690836004811115610ee457610ee36110a2565b5b02179055503373ffffffffffffffffffffffffffffffffffffffff167f543ba50a5eec5e6178218e364b1d0f396157b3c8fa278522c2cb7fd99407d47434604051610f2f91906111ff565b60405180910390a250565b600260005403610f76576040517f3ee5aeb500000000000000000000000000000000000000000000000000000000815260040160405180910390fd5b6002600081905550565b6001600081905550565b600080fd5b600080fd5b600080fd5b600080fd5b600080fd5b60008083601f840112610fb957610fb8610f94565b5b8235905067ffffffffffffffff811115610fd657610fd5610f99565b5b602083019150836001820283011115610ff257610ff1610f9e565b5b9250929050565b600080602083850312156110105761100f610f8a565b5b600083013567ffffffffffffffff81111561102e5761102d610f8f565b5b61103a85828601610fa3565b92509250509250929050565b600073ffffffffffffffffffffffffffffffffffffffff82169050919050565b600061107182611046565b9050919050565b61108181611066565b82525050565b600060208201905061109c6000830184611078565b92915050565b7f4e487b7100000000000000000000000000000000000000000000000000000000600052602160045260246000fd5b600581106110e2576110e16110a2565b5b50565b60008190506110f3826110d1565b919050565b6000611103826110e5565b9050919050565b611113816110f8565b82525050565b600060208201905061112e600083018461110a565b92915050565b600081519050919050565b600082825260208201905092915050565b60005b8381101561116e578082015181840152602081019050611153565b60008484015250505050565b6000601f19601f8301169050919050565b600061119682611134565b6111a0818561113f565b93506111b0818560208601611150565b6111b98161117a565b840191505092915050565b600060208201905081810360008301526111de818461118b565b905092915050565b6000819050919050565b6111f9816111e6565b82525050565b600060208201905061121460008301846111f0565b92915050565b61122381611066565b811461122e57600080fd5b50565b6000813590506112408161121a565b92915050565b61124f816111e6565b811461125a57600080fd5b50565b60008135905061126c81611246565b92915050565b60008060006060848603121561128b5761128a610f8a565b5b600061129986828701611231565b93505060206112aa86828701611231565b92505060406112bb8682870161125d565b9150509250925092565b7f4f6e6c7920667265656c616e6365722063616e2063616c6c2074686973000000600082015250565b60006112fb601d8361113f565b9150611306826112c5565b602082019050919050565b6000602082019050818103600083015261132a816112ee565b9050919050565b7f496e76616c69642073746174757320666f72207468697320616374696f6e0000600082015250565b6000611367601e8361113f565b915061137282611331565b602082019050919050565b600060208201905081810360008301526113968161135a565b9050919050565b7f576f726b207265666572656e6365206973207265717569726564000000000000600082015250565b60006113d3601a8361113f565b91506113de8261139d565b602082019050919050565b60006020820190508181036000830152611402816113c6565b9050919050565b600082905092915050565b7f4e487b7100000000000000000000000000000000000000000000000000000000600052604160045260246000fd5b7f4e487b7100000000000000000000000000000000000000000000000000000000600052602260045260246000fd5b6000600282049050600182168061148a57607f821691505b60208210810361149d5761149c611443565b5b50919050565b60008190508160005260206000209050919050565b60006020601f8301049050919050565b600082821b905092915050565b6000600883026115057fffffffffffffffffffffffffffffffffffffffffffffffffffffffffffffffff826114c8565b61150f86836114c8565b95508019841693508086168417925050509392505050565b6000819050919050565b600061154c611547611542846111e6565b611527565b6111e6565b9050919050565b6000819050919050565b61156683611531565b61157a61157282611553565b8484546114d5565b825550505050565b600090565b61158f611582565b61159a81848461155d565b505050565b5b818110156115be576115b3600082611587565b6001810190506115a0565b5050565b601f821115611603576115d4816114a3565b6115dd846114b8565b810160208510156115ec578190505b6116006115f8856114b8565b83018261159f565b50505b505050565b600082821c905092915050565b600061162660001984600802611608565b1980831691505092915050565b600061163f8383611615565b9150826002028217905092915050565b6116598383611409565b67ffffffffffffffff81111561167257611671611414565b5b61167c8254611472565b6116878282856115c2565b6000601f8311600181146116b657600084156116a4578287013590505b6116ae8582611633565b865550611716565b601f1984166116c4866114a3565b60005b828110156116ec578489013582556001820191506020850194506020810190506116c7565b868310156117095784890135611705601f891682611615565b8355505b6001600288020188555050505b50505050505050565b82818337600083830152505050565b600061173a838561113f565b935061174783858461171f565b6117508361117a565b840190509392505050565b6000602082019050818103600083015261177681848661172e565b90509392505050565b7f4f6e6c7920636c69656e742063616e2063616c6c207468697300000000000000600082015250565b60006117b560198361113f565b91506117c08261177f565b602082019050919050565b600060208201905081810360008301526117e4816117a8565b9050919050565b600081905092915050565b50565b60006118066000836117eb565b9150611811826117f6565b600082019050919050565b6000611827826117f9565b9150819050919050565b7f526566756e6420746f20636c69656e74206661696c6564000000000000000000600082015250565b600061186760178361113f565b915061187282611831565b602082019050919050565b600060208201905081810360008301526118968161185a565b9050919050565b7f4f6e6c7920666163746f72792063616e20696e697469616c697a650000000000600082015250565b60006118d3601b8361113f565b91506118de8261189d565b602082019050919050565b60006020820190508181036000830152611902816118c6565b9050919050565b7f457363726f7720616c726561647920696e697469616c697a6564000000000000600082015250565b600061193f601a8361113f565b915061194a82611909565b602082019050919050565b6000602082019050818103600083015261196e81611932565b9050919050565b7f496e76616c696420636c69656e74206164647265737300000000000000000000600082015250565b60006119ab60168361113f565b91506119b682611975565b602082019050919050565b600060208201905081810360008301526119da8161199e565b9050919050565b7f496e76616c696420667265656c616e6365722061646472657373000000000000600082015250565b6000611a17601a8361113f565b9150611a22826119e1565b602082019050919050565b60006020820190508181036000830152611a4681611a0a565b9050919050565b7f436c69656e7420616e6420667265656c616e636572206d75737420646966666560008201527f7200000000000000000000000000000000000000000000000000000000000000602082015250565b6000611aa960218361113f565b9150611ab482611a4d565b604082019050919050565b60006020820190508181036000830152611ad881611a9c565b9050919050565b7f416d6f756e74206d7573742062652067726561746572207468616e207a65726f600082015250565b6000611b1560208361113f565b9150611b2082611adf565b602082019050919050565b60006020820190508181036000830152611b4481611b08565b9050919050565b7f5472616e7366657220746f20667265656c616e636572206661696c6564000000600082015250565b6000611b81601d8361113f565b9150611b8c82611b4b565b602082019050919050565b60006020820190508181036000830152611bb081611b74565b9050919050565b7f4465706f736974206d757374206d617463682061677265656420616d6f756e74600082015250565b6000611bed60208361113f565b9150611bf882611bb7565b602082019050919050565b60006020820190508181036000830152611c1c81611be0565b905091905056fea264697066735822122054b5bf3afcc32a17aa5dda8de0fe66ad98a6a85bb9de650d080eb944e95a4f1864736f6c63430008140033",
  "linkReferences": {},
  "deployedLinkReferences": {}
}